{
	"contracts/HeirloomTransfer.sol": {
		"HeirloomTransfer": {
			"abi": [
				{
					"inputs": [],
					"stateMutability": "nonpayable",
					"type": "constructor"
				},
				{
					"inputs": [],
					"name": "checkHolder",
					"outputs": [
						{
							"internalType": "string",
							"name": "",
							"type": "string"
						}
					],
					"stateMutability": "view",
					"type": "function"
				},
				{
					"inputs": [
						{
							"internalType": "address",
							"name": "Address",
							"type": "address"
						}
					],
					"name": "transfer",
					"outputs": [],
					"stateMutability": "nonpayable",
					"type": "function"
				}
			],
			"devdoc": {
				"kind": "dev",
				"methods": {},
				"version": 1
			},
			"evm": {
				"assembly": "    /* \"contracts/HeirloomTransfer.sol\":74:531  contract HeirloomTransfer {... */\n  mstore(0x40, 0x80)\n    /* \"contracts/HeirloomTransfer.sol\":138:190  constructor() {... */\n  callvalue\n  dup1\n  iszero\n  tag_1\n  jumpi\n  0x00\n  dup1\n  revert\ntag_1:\n  pop\n    /* \"contracts/HeirloomTransfer.sol\":172:182  msg.sender */\n  caller\n    /* \"contracts/HeirloomTransfer.sol\":163:169  holder */\n  0x00\n  dup1\n    /* \"contracts/HeirloomTransfer.sol\":163:182  holder = msg.sender */\n  0x0100\n  exp\n  dup2\n  sload\n  dup2\n  0xffffffffffffffffffffffffffffffffffffffff\n  mul\n  not\n  and\n  swap1\n  dup4\n  0xffffffffffffffffffffffffffffffffffffffff\n  and\n  mul\n  or\n  swap1\n  sstore\n  pop\n    /* \"contracts/HeirloomTransfer.sol\":74:531  contract HeirloomTransfer {... */\n  dataSize(sub_0)\n  dup1\n  dataOffset(sub_0)\n  0x00\n  codecopy\n  0x00\n  return\nstop\n\nsub_0: assembly {\n        /* \"contracts/HeirloomTransfer.sol\":74:531  contract HeirloomTransfer {... */\n      mstore(0x40, 0x80)\n      callvalue\n      dup1\n      iszero\n      tag_1\n      jumpi\n      0x00\n      dup1\n      revert\n    tag_1:\n      pop\n      jumpi(tag_2, lt(calldatasize, 0x04))\n      shr(0xe0, calldataload(0x00))\n      dup1\n      0x1a695230\n      eq\n      tag_3\n      jumpi\n      dup1\n      0x486198e3\n      eq\n      tag_4\n      jumpi\n    tag_2:\n      0x00\n      dup1\n      revert\n        /* \"contracts/HeirloomTransfer.sol\":313:400  function transfer(address Address) external isHolder{... */\n    tag_3:\n      tag_5\n      0x04\n      dup1\n      calldatasize\n      sub\n      dup2\n      add\n      swap1\n      tag_6\n      swap2\n      swap1\n      tag_7\n      jump\t// in\n    tag_6:\n      tag_8\n      jump\t// in\n    tag_5:\n      stop\n        /* \"contracts/HeirloomTransfer.sol\":408:528  function checkHolder() external isHolder view returns (string memory) {... */\n    tag_4:\n      tag_9\n      tag_10\n      jump\t// in\n    tag_9:\n      mload(0x40)\n      tag_11\n      swap2\n      swap1\n      tag_12\n      jump\t// in\n    tag_11:\n      mload(0x40)\n      dup1\n      swap2\n      sub\n      swap1\n      return\n        /* \"contracts/HeirloomTransfer.sol\":313:400  function transfer(address Address) external isHolder{... */\n    tag_8:\n        /* \"contracts/HeirloomTransfer.sol\":251:257  holder */\n      0x00\n      dup1\n      sload\n      swap1\n      0x0100\n      exp\n      swap1\n      div\n      0xffffffffffffffffffffffffffffffffffffffff\n      and\n        /* \"contracts/HeirloomTransfer.sol\":237:257  msg.sender == holder */\n      0xffffffffffffffffffffffffffffffffffffffff\n      and\n        /* \"contracts/HeirloomTransfer.sol\":237:247  msg.sender */\n      caller\n        /* \"contracts/HeirloomTransfer.sol\":237:257  msg.sender == holder */\n      0xffffffffffffffffffffffffffffffffffffffff\n      and\n      eq\n        /* \"contracts/HeirloomTransfer.sol\":229:285  require(msg.sender == holder, \"You are not the holder!\") */\n      tag_14\n      jumpi\n      mload(0x40)\n      0x08c379a000000000000000000000000000000000000000000000000000000000\n      dup2\n      mstore\n      0x04\n      add\n      tag_15\n      swap1\n      tag_16\n      jump\t// in\n    tag_15:\n      mload(0x40)\n      dup1\n      swap2\n      sub\n      swap1\n      revert\n    tag_14:\n        /* \"contracts/HeirloomTransfer.sol\":385:392  Address */\n      dup1\n        /* \"contracts/HeirloomTransfer.sol\":376:382  holder */\n      0x00\n      dup1\n        /* \"contracts/HeirloomTransfer.sol\":376:392  holder = Address */\n      0x0100\n      exp\n      dup2\n      sload\n      dup2\n      0xffffffffffffffffffffffffffffffffffffffff\n      mul\n      not\n      and\n      swap1\n      dup4\n      0xffffffffffffffffffffffffffffffffffffffff\n      and\n      mul\n      or\n      swap1\n      sstore\n      pop\n        /* \"contracts/HeirloomTransfer.sol\":313:400  function transfer(address Address) external isHolder{... */\n      pop\n      jump\t// out\n        /* \"contracts/HeirloomTransfer.sol\":408:528  function checkHolder() external isHolder view returns (string memory) {... */\n    tag_10:\n        /* \"contracts/HeirloomTransfer.sol\":463:476  string memory */\n      0x60\n        /* \"contracts/HeirloomTransfer.sol\":251:257  holder */\n      0x00\n      dup1\n      sload\n      swap1\n      0x0100\n      exp\n      swap1\n      div\n      0xffffffffffffffffffffffffffffffffffffffff\n      and\n        /* \"contracts/HeirloomTransfer.sol\":237:257  msg.sender == holder */\n      0xffffffffffffffffffffffffffffffffffffffff\n      and\n        /* \"contracts/HeirloomTransfer.sol\":237:247  msg.sender */\n      caller\n        /* \"contracts/HeirloomTransfer.sol\":237:257  msg.sender == holder */\n      0xffffffffffffffffffffffffffffffffffffffff\n      and\n      eq\n        /* \"contracts/HeirloomTransfer.sol\":229:285  require(msg.sender == holder, \"You are not the holder!\") */\n      tag_19\n      jumpi\n      mload(0x40)\n      0x08c379a000000000000000000000000000000000000000000000000000000000\n      dup2\n      mstore\n      0x04\n      add\n      tag_20\n      swap1\n      tag_16\n      jump\t// in\n    tag_20:\n      mload(0x40)\n      dup1\n      swap2\n      sub\n      swap1\n      revert\n    tag_19:\n        /* \"contracts/HeirloomTransfer.sol\":489:520  return \"I am still the holder!\" */\n      mload(0x40)\n      dup1\n      0x40\n      add\n      0x40\n      mstore\n      dup1\n      0x16\n      dup2\n      mstore\n      0x20\n      add\n      0x4920616d207374696c6c2074686520686f6c6465722100000000000000000000\n      dup2\n      mstore\n      pop\n      swap1\n      pop\n        /* \"contracts/HeirloomTransfer.sol\":408:528  function checkHolder() external isHolder view returns (string memory) {... */\n      swap1\n      jump\t// out\n        /* \"#utility.yul\":88:205   */\n    tag_23:\n        /* \"#utility.yul\":197:198   */\n      0x00\n        /* \"#utility.yul\":194:195   */\n      dup1\n        /* \"#utility.yul\":187:199   */\n      revert\n        /* \"#utility.yul\":334:460   */\n    tag_25:\n        /* \"#utility.yul\":371:378   */\n      0x00\n        /* \"#utility.yul\":411:453   */\n      0xffffffffffffffffffffffffffffffffffffffff\n        /* \"#utility.yul\":404:409   */\n      dup3\n        /* \"#utility.yul\":400:454   */\n      and\n        /* \"#utility.yul\":389:454   */\n      swap1\n      pop\n        /* \"#utility.yul\":334:460   */\n      swap2\n      swap1\n      pop\n      jump\t// out\n        /* \"#utility.yul\":466:562   */\n    tag_26:\n        /* \"#utility.yul\":503:510   */\n      0x00\n        /* \"#utility.yul\":532:556   */\n      tag_42\n        /* \"#utility.yul\":550:555   */\n      dup3\n        /* \"#utility.yul\":532:556   */\n      tag_25\n      jump\t// in\n    tag_42:\n        /* \"#utility.yul\":521:556   */\n      swap1\n      pop\n        /* \"#utility.yul\":466:562   */\n      swap2\n      swap1\n      pop\n      jump\t// out\n        /* \"#utility.yul\":568:690   */\n    tag_27:\n        /* \"#utility.yul\":641:665   */\n      tag_44\n        /* \"#utility.yul\":659:664   */\n      dup2\n        /* \"#utility.yul\":641:665   */\n      tag_26\n      jump\t// in\n    tag_44:\n        /* \"#utility.yul\":634:639   */\n      dup2\n        /* \"#utility.yul\":631:666   */\n      eq\n        /* \"#utility.yul\":621:684   */\n      tag_45\n      jumpi\n        /* \"#utility.yul\":680:681   */\n      0x00\n        /* \"#utility.yul\":677:678   */\n      dup1\n        /* \"#utility.yul\":670:682   */\n      revert\n        /* \"#utility.yul\":621:684   */\n    tag_45:\n        /* \"#utility.yul\":568:690   */\n      pop\n      jump\t// out\n        /* \"#utility.yul\":696:835   */\n    tag_28:\n        /* \"#utility.yul\":742:747   */\n      0x00\n        /* \"#utility.yul\":780:786   */\n      dup2\n        /* \"#utility.yul\":767:787   */\n      calldataload\n        /* \"#utility.yul\":758:787   */\n      swap1\n      pop\n        /* \"#utility.yul\":796:829   */\n      tag_47\n        /* \"#utility.yul\":823:828   */\n      dup2\n        /* \"#utility.yul\":796:829   */\n      tag_27\n      jump\t// in\n    tag_47:\n        /* \"#utility.yul\":696:835   */\n      swap3\n      swap2\n      pop\n      pop\n      jump\t// out\n        /* \"#utility.yul\":841:1170   */\n    tag_7:\n        /* \"#utility.yul\":900:906   */\n      0x00\n        /* \"#utility.yul\":949:951   */\n      0x20\n        /* \"#utility.yul\":937:946   */\n      dup3\n        /* \"#utility.yul\":928:935   */\n      dup5\n        /* \"#utility.yul\":924:947   */\n      sub\n        /* \"#utility.yul\":920:952   */\n      slt\n        /* \"#utility.yul\":917:1036   */\n      iszero\n      tag_49\n      jumpi\n        /* \"#utility.yul\":955:1034   */\n      tag_50\n      tag_23\n      jump\t// in\n    tag_50:\n        /* \"#utility.yul\":917:1036   */\n    tag_49:\n        /* \"#utility.yul\":1075:1076   */\n      0x00\n        /* \"#utility.yul\":1100:1153   */\n      tag_51\n        /* \"#utility.yul\":1145:1152   */\n      dup5\n        /* \"#utility.yul\":1136:1142   */\n      dup3\n        /* \"#utility.yul\":1125:1134   */\n      dup6\n        /* \"#utility.yul\":1121:1143   */\n      add\n        /* \"#utility.yul\":1100:1153   */\n      tag_28\n      jump\t// in\n    tag_51:\n        /* \"#utility.yul\":1090:1153   */\n      swap2\n      pop\n        /* \"#utility.yul\":1046:1163   */\n      pop\n        /* \"#utility.yul\":841:1170   */\n      swap3\n      swap2\n      pop\n      pop\n      jump\t// out\n        /* \"#utility.yul\":1176:1275   */\n    tag_29:\n        /* \"#utility.yul\":1228:1234   */\n      0x00\n        /* \"#utility.yul\":1262:1267   */\n      dup2\n        /* \"#utility.yul\":1256:1268   */\n      mload\n        /* \"#utility.yul\":1246:1268   */\n      swap1\n      pop\n        /* \"#utility.yul\":1176:1275   */\n      swap2\n      swap1\n      pop\n      jump\t// out\n        /* \"#utility.yul\":1281:1450   */\n    tag_30:\n        /* \"#utility.yul\":1365:1376   */\n      0x00\n        /* \"#utility.yul\":1399:1405   */\n      dup3\n        /* \"#utility.yul\":1394:1397   */\n      dup3\n        /* \"#utility.yul\":1387:1406   */\n      mstore\n        /* \"#utility.yul\":1439:1443   */\n      0x20\n        /* \"#utility.yul\":1434:1437   */\n      dup3\n        /* \"#utility.yul\":1430:1444   */\n      add\n        /* \"#utility.yul\":1415:1444   */\n      swap1\n      pop\n        /* \"#utility.yul\":1281:1450   */\n      swap3\n      swap2\n      pop\n      pop\n      jump\t// out\n        /* \"#utility.yul\":1456:1702   */\n    tag_31:\n        /* \"#utility.yul\":1537:1538   */\n      0x00\n        /* \"#utility.yul\":1547:1660   */\n    tag_55:\n        /* \"#utility.yul\":1561:1567   */\n      dup4\n        /* \"#utility.yul\":1558:1559   */\n      dup2\n        /* \"#utility.yul\":1555:1568   */\n      lt\n        /* \"#utility.yul\":1547:1660   */\n      iszero\n      tag_57\n      jumpi\n        /* \"#utility.yul\":1646:1647   */\n      dup1\n        /* \"#utility.yul\":1641:1644   */\n      dup3\n        /* \"#utility.yul\":1637:1648   */\n      add\n        /* \"#utility.yul\":1631:1649   */\n      mload\n        /* \"#utility.yul\":1627:1628   */\n      dup2\n        /* \"#utility.yul\":1622:1625   */\n      dup5\n        /* \"#utility.yul\":1618:1629   */\n      add\n        /* \"#utility.yul\":1611:1650   */\n      mstore\n        /* \"#utility.yul\":1583:1585   */\n      0x20\n        /* \"#utility.yul\":1580:1581   */\n      dup2\n        /* \"#utility.yul\":1576:1586   */\n      add\n        /* \"#utility.yul\":1571:1586   */\n      swap1\n      pop\n        /* \"#utility.yul\":1547:1660   */\n      jump(tag_55)\n    tag_57:\n        /* \"#utility.yul\":1694:1695   */\n      0x00\n        /* \"#utility.yul\":1685:1691   */\n      dup5\n        /* \"#utility.yul\":1680:1683   */\n      dup5\n        /* \"#utility.yul\":1676:1692   */\n      add\n        /* \"#utility.yul\":1669:1696   */\n      mstore\n        /* \"#utility.yul\":1518:1702   */\n      pop\n        /* \"#utility.yul\":1456:1702   */\n      pop\n      pop\n      pop\n      jump\t// out\n        /* \"#utility.yul\":1708:1810   */\n    tag_32:\n        /* \"#utility.yul\":1749:1755   */\n      0x00\n        /* \"#utility.yul\":1800:1802   */\n      0x1f\n        /* \"#utility.yul\":1796:1803   */\n      not\n        /* \"#utility.yul\":1791:1793   */\n      0x1f\n        /* \"#utility.yul\":1784:1789   */\n      dup4\n        /* \"#utility.yul\":1780:1794   */\n      add\n        /* \"#utility.yul\":1776:1804   */\n      and\n        /* \"#utility.yul\":1766:1804   */\n      swap1\n      pop\n        /* \"#utility.yul\":1708:1810   */\n      swap2\n      swap1\n      pop\n      jump\t// out\n        /* \"#utility.yul\":1816:2193   */\n    tag_33:\n        /* \"#utility.yul\":1904:1907   */\n      0x00\n        /* \"#utility.yul\":1932:1971   */\n      tag_60\n        /* \"#utility.yul\":1965:1970   */\n      dup3\n        /* \"#utility.yul\":1932:1971   */\n      tag_29\n      jump\t// in\n    tag_60:\n        /* \"#utility.yul\":1987:2058   */\n      tag_61\n        /* \"#utility.yul\":2051:2057   */\n      dup2\n        /* \"#utility.yul\":2046:2049   */\n      dup6\n        /* \"#utility.yul\":1987:2058   */\n      tag_30\n      jump\t// in\n    tag_61:\n        /* \"#utility.yul\":1980:2058   */\n      swap4\n      pop\n        /* \"#utility.yul\":2067:2132   */\n      tag_62\n        /* \"#utility.yul\":2125:2131   */\n      dup2\n        /* \"#utility.yul\":2120:2123   */\n      dup6\n        /* \"#utility.yul\":2113:2117   */\n      0x20\n        /* \"#utility.yul\":2106:2111   */\n      dup7\n        /* \"#utility.yul\":2102:2118   */\n      add\n        /* \"#utility.yul\":2067:2132   */\n      tag_31\n      jump\t// in\n    tag_62:\n        /* \"#utility.yul\":2157:2186   */\n      tag_63\n        /* \"#utility.yul\":2179:2185   */\n      dup2\n        /* \"#utility.yul\":2157:2186   */\n      tag_32\n      jump\t// in\n    tag_63:\n        /* \"#utility.yul\":2152:2155   */\n      dup5\n        /* \"#utility.yul\":2148:2187   */\n      add\n        /* \"#utility.yul\":2141:2187   */\n      swap2\n      pop\n        /* \"#utility.yul\":1908:2193   */\n      pop\n        /* \"#utility.yul\":1816:2193   */\n      swap3\n      swap2\n      pop\n      pop\n      jump\t// out\n        /* \"#utility.yul\":2199:2512   */\n    tag_12:\n        /* \"#utility.yul\":2312:2316   */\n      0x00\n        /* \"#utility.yul\":2350:2352   */\n      0x20\n        /* \"#utility.yul\":2339:2348   */\n      dup3\n        /* \"#utility.yul\":2335:2353   */\n      add\n        /* \"#utility.yul\":2327:2353   */\n      swap1\n      pop\n        /* \"#utility.yul\":2399:2408   */\n      dup2\n        /* \"#utility.yul\":2393:2397   */\n      dup2\n        /* \"#utility.yul\":2389:2409   */\n      sub\n        /* \"#utility.yul\":2385:2386   */\n      0x00\n        /* \"#utility.yul\":2374:2383   */\n      dup4\n        /* \"#utility.yul\":2370:2387   */\n      add\n        /* \"#utility.yul\":2363:2410   */\n      mstore\n        /* \"#utility.yul\":2427:2505   */\n      tag_65\n        /* \"#utility.yul\":2500:2504   */\n      dup2\n        /* \"#utility.yul\":2491:2497   */\n      dup5\n        /* \"#utility.yul\":2427:2505   */\n      tag_33\n      jump\t// in\n    tag_65:\n        /* \"#utility.yul\":2419:2505   */\n      swap1\n      pop\n        /* \"#utility.yul\":2199:2512   */\n      swap3\n      swap2\n      pop\n      pop\n      jump\t// out\n        /* \"#utility.yul\":2518:2691   */\n    tag_34:\n        /* \"#utility.yul\":2658:2683   */\n      0x596f7520617265206e6f742074686520686f6c64657221000000000000000000\n        /* \"#utility.yul\":2654:2655   */\n      0x00\n        /* \"#utility.yul\":2646:2652   */\n      dup3\n        /* \"#utility.yul\":2642:2656   */\n      add\n        /* \"#utility.yul\":2635:2684   */\n      mstore\n        /* \"#utility.yul\":2518:2691   */\n      pop\n      jump\t// out\n        /* \"#utility.yul\":2697:3063   */\n    tag_35:\n        /* \"#utility.yul\":2839:2842   */\n      0x00\n        /* \"#utility.yul\":2860:2927   */\n      tag_68\n        /* \"#utility.yul\":2924:2926   */\n      0x17\n        /* \"#utility.yul\":2919:2922   */\n      dup4\n        /* \"#utility.yul\":2860:2927   */\n      tag_30\n      jump\t// in\n    tag_68:\n        /* \"#utility.yul\":2853:2927   */\n      swap2\n      pop\n        /* \"#utility.yul\":2936:3029   */\n      tag_69\n        /* \"#utility.yul\":3025:3028   */\n      dup3\n        /* \"#utility.yul\":2936:3029   */\n      tag_34\n      jump\t// in\n    tag_69:\n        /* \"#utility.yul\":3054:3056   */\n      0x20\n        /* \"#utility.yul\":3049:3052   */\n      dup3\n        /* \"#utility.yul\":3045:3057   */\n      add\n        /* \"#utility.yul\":3038:3057   */\n      swap1\n      pop\n        /* \"#utility.yul\":2697:3063   */\n      swap2\n      swap1\n      pop\n      jump\t// out\n        /* \"#utility.yul\":3069:3488   */\n    tag_16:\n        /* \"#utility.yul\":3235:3239   */\n      0x00\n        /* \"#utility.yul\":3273:3275   */\n      0x20\n        /* \"#utility.yul\":3262:3271   */\n      dup3\n        /* \"#utility.yul\":3258:3276   */\n      add\n        /* \"#utility.yul\":3250:3276   */\n      swap1\n      pop\n        /* \"#utility.yul\":3322:3331   */\n      dup2\n        /* \"#utility.yul\":3316:3320   */\n      dup2\n        /* \"#utility.yul\":3312:3332   */\n      sub\n        /* \"#utility.yul\":3308:3309   */\n      0x00\n        /* \"#utility.yul\":3297:3306   */\n      dup4\n        /* \"#utility.yul\":3293:3310   */\n      add\n        /* \"#utility.yul\":3286:3333   */\n      mstore\n        /* \"#utility.yul\":3350:3481   */\n      tag_71\n        /* \"#utility.yul\":3476:3480   */\n      dup2\n        /* \"#utility.yul\":3350:3481   */\n      tag_35\n      jump\t// in\n    tag_71:\n        /* \"#utility.yul\":3342:3481   */\n      swap1\n      pop\n        /* \"#utility.yul\":3069:3488   */\n      swap2\n      swap1\n      pop\n      jump\t// out\n\n    auxdata: 0xa2646970667358221220110f84e9608dc8c9bd98ce75b0e2b8b4f5ace2955cec1b06f2dd8c24140d8c2e64736f6c63430008120033\n}\n",
				"bytecode": {
					"linkReferences": {},
					"object": "608060405234801561001057600080fd5b50336000806101000a81548173ffffffffffffffffffffffffffffffffffffffff021916908373ffffffffffffffffffffffffffffffffffffffff1602179055506103f5806100606000396000f3fe608060405234801561001057600080fd5b50600436106100365760003560e01c80631a6952301461003b578063486198e314610057575b600080fd5b61005560048036038101906100509190610274565b610075565b005b61005f610146565b60405161006c9190610331565b60405180910390f35b60008054906101000a900473ffffffffffffffffffffffffffffffffffffffff1673ffffffffffffffffffffffffffffffffffffffff163373ffffffffffffffffffffffffffffffffffffffff1614610103576040517f08c379a00000000000000000000000000000000000000000000000000000000081526004016100fa9061039f565b60405180910390fd5b806000806101000a81548173ffffffffffffffffffffffffffffffffffffffff021916908373ffffffffffffffffffffffffffffffffffffffff16021790555050565b606060008054906101000a900473ffffffffffffffffffffffffffffffffffffffff1673ffffffffffffffffffffffffffffffffffffffff163373ffffffffffffffffffffffffffffffffffffffff16146101d6576040517f08c379a00000000000000000000000000000000000000000000000000000000081526004016101cd9061039f565b60405180910390fd5b6040518060400160405280601681526020017f4920616d207374696c6c2074686520686f6c6465722100000000000000000000815250905090565b600080fd5b600073ffffffffffffffffffffffffffffffffffffffff82169050919050565b600061024182610216565b9050919050565b61025181610236565b811461025c57600080fd5b50565b60008135905061026e81610248565b92915050565b60006020828403121561028a57610289610211565b5b60006102988482850161025f565b91505092915050565b600081519050919050565b600082825260208201905092915050565b60005b838110156102db5780820151818401526020810190506102c0565b60008484015250505050565b6000601f19601f8301169050919050565b6000610303826102a1565b61030d81856102ac565b935061031d8185602086016102bd565b610326816102e7565b840191505092915050565b6000602082019050818103600083015261034b81846102f8565b905092915050565b7f596f7520617265206e6f742074686520686f6c64657221000000000000000000600082015250565b60006103896017836102ac565b915061039482610353565b602082019050919050565b600060208201905081810360008301526103b88161037c565b905091905056fea2646970667358221220110f84e9608dc8c9bd98ce75b0e2b8b4f5ace2955cec1b06f2dd8c24140d8c2e64736f6c63430008120033",
					"opcodes": "PUSH1 0x80 PUSH1 0x40 MSTORE CALLVALUE DUP1 ISZERO PUSH2 0x10 JUMPI PUSH1 0x0 DUP1 REVERT JUMPDEST POP CALLER PUSH1 0x0 DUP1 PUSH2 0x100 EXP DUP2 SLOAD DUP2 PUSH20 0xFFFFFFFFFFFFFFFFFFFFFFFFFFFFFFFFFFFFFFFF MUL NOT AND SWAP1 DUP4 PUSH20 0xFFFFFFFFFFFFFFFFFFFFFFFFFFFFFFFFFFFFFFFF AND MUL OR SWAP1 SSTORE POP PUSH2 0x3F5 DUP1 PUSH2 0x60 PUSH1 0x0 CODECOPY PUSH1 0x0 RETURN INVALID PUSH1 0x80 PUSH1 0x40 MSTORE CALLVALUE DUP1 ISZERO PUSH2 0x10 JUMPI PUSH1 0x0 DUP1 REVERT JUMPDEST POP PUSH1 0x4 CALLDATASIZE LT PUSH2 0x36 JUMPI PUSH1 0x0 CALLDATALOAD PUSH1 0xE0 SHR DUP1 PUSH4 0x1A695230 EQ PUSH2 0x3B JUMPI DUP1 PUSH4 0x486198E3 EQ PUSH2 0x57 JUMPI JUMPDEST PUSH1 0x0 DUP1 REVERT JUMPDEST PUSH2 0x55 PUSH1 0x4 DUP1 CALLDATASIZE SUB DUP2 ADD SWAP1 PUSH2 0x50 SWAP2 SWAP1 PUSH2 0x274 JUMP JUMPDEST PUSH2 0x75 JUMP JUMPDEST STOP JUMPDEST PUSH2 0x5F PUSH2 0x146 JUMP JUMPDEST PUSH1 0x40 MLOAD PUSH2 0x6C SWAP2 SWAP1 PUSH2 0x331 JUMP JUMPDEST PUSH1 0x40 MLOAD DUP1 SWAP2 SUB SWAP1 RETURN JUMPDEST PUSH1 0x0 DUP1 SLOAD SWAP1 PUSH2 0x100 EXP SWAP1 DIV PUSH20 0xFFFFFFFFFFFFFFFFFFFFFFFFFFFFFFFFFFFFFFFF AND PUSH20 0xFFFFFFFFFFFFFFFFFFFFFFFFFFFFFFFFFFFFFFFF AND CALLER PUSH20 0xFFFFFFFFFFFFFFFFFFFFFFFFFFFFFFFFFFFFFFFF AND EQ PUSH2 0x103 JUMPI PUSH1 0x40 MLOAD PUSH32 0x8C379A000000000000000000000000000000000000000000000000000000000 DUP2 MSTORE PUSH1 0x4 ADD PUSH2 0xFA SWAP1 PUSH2 0x39F JUMP JUMPDEST PUSH1 0x40 MLOAD DUP1 SWAP2 SUB SWAP1 REVERT JUMPDEST DUP1 PUSH1 0x0 DUP1 PUSH2 0x100 EXP DUP2 SLOAD DUP2 PUSH20 0xFFFFFFFFFFFFFFFFFFFFFFFFFFFFFFFFFFFFFFFF MUL NOT AND SWAP1 DUP4 PUSH20 0xFFFFFFFFFFFFFFFFFFFFFFFFFFFFFFFFFFFFFFFF AND MUL OR SWAP1 SSTORE POP POP JUMP JUMPDEST PUSH1 0x60 PUSH1 0x0 DUP1 SLOAD SWAP1 PUSH2 0x100 EXP SWAP1 DIV PUSH20 0xFFFFFFFFFFFFFFFFFFFFFFFFFFFFFFFFFFFFFFFF AND PUSH20 0xFFFFFFFFFFFFFFFFFFFFFFFFFFFFFFFFFFFFFFFF AND CALLER PUSH20 0xFFFFFFFFFFFFFFFFFFFFFFFFFFFFFFFFFFFFFFFF AND EQ PUSH2 0x1D6 JUMPI PUSH1 0x40 MLOAD PUSH32 0x8C379A000000000000000000000000000000000000000000000000000000000 DUP2 MSTORE PUSH1 0x4 ADD PUSH2 0x1CD SWAP1 PUSH2 0x39F JUMP JUMPDEST PUSH1 0x40 MLOAD DUP1 SWAP2 SUB SWAP1 REVERT JUMPDEST PUSH1 0x40 MLOAD DUP1 PUSH1 0x40 ADD PUSH1 0x40 MSTORE DUP1 PUSH1 0x16 DUP2 MSTORE PUSH1 0x20 ADD PUSH32 0x4920616D207374696C6C2074686520686F6C6465722100000000000000000000 DUP2 MSTORE POP SWAP1 POP SWAP1 JUMP JUMPDEST PUSH1 0x0 DUP1 REVERT JUMPDEST PUSH1 0x0 PUSH20 0xFFFFFFFFFFFFFFFFFFFFFFFFFFFFFFFFFFFFFFFF DUP3 AND SWAP1 POP SWAP2 SWAP1 POP JUMP JUMPDEST PUSH1 0x0 PUSH2 0x241 DUP3 PUSH2 0x216 JUMP JUMPDEST SWAP1 POP SWAP2 SWAP1 POP JUMP JUMPDEST PUSH2 0x251 DUP2 PUSH2 0x236 JUMP JUMPDEST DUP2 EQ PUSH2 0x25C JUMPI PUSH1 0x0 DUP1 REVERT JUMPDEST POP JUMP JUMPDEST PUSH1 0x0 DUP2 CALLDATALOAD SWAP1 POP PUSH2 0x26E DUP2 PUSH2 0x248 JUMP JUMPDEST SWAP3 SWAP2 POP POP JUMP JUMPDEST PUSH1 0x0 PUSH1 0x20 DUP3 DUP5 SUB SLT ISZERO PUSH2 0x28A JUMPI PUSH2 0x289 PUSH2 0x211 JUMP JUMPDEST JUMPDEST PUSH1 0x0 PUSH2 0x298 DUP5 DUP3 DUP6 ADD PUSH2 0x25F JUMP JUMPDEST SWAP2 POP POP SWAP3 SWAP2 POP POP JUMP JUMPDEST PUSH1 0x0 DUP2 MLOAD SWAP1 POP SWAP2 SWAP1 POP JUMP JUMPDEST PUSH1 0x0 DUP3 DUP3 MSTORE PUSH1 0x20 DUP3 ADD SWAP1 POP SWAP3 SWAP2 POP POP JUMP JUMPDEST PUSH1 0x0 JUMPDEST DUP4 DUP2 LT ISZERO PUSH2 0x2DB JUMPI DUP1 DUP3 ADD MLOAD DUP2 DUP5 ADD MSTORE PUSH1 0x20 DUP2 ADD SWAP1 POP PUSH2 0x2C0 JUMP JUMPDEST PUSH1 0x0 DUP5 DUP5 ADD MSTORE POP POP POP POP JUMP JUMPDEST PUSH1 0x0 PUSH1 0x1F NOT PUSH1 0x1F DUP4 ADD AND SWAP1 POP SWAP2 SWAP1 POP JUMP JUMPDEST PUSH1 0x0 PUSH2 0x303 DUP3 PUSH2 0x2A1 JUMP JUMPDEST PUSH2 0x30D DUP2 DUP6 PUSH2 0x2AC JUMP JUMPDEST SWAP4 POP PUSH2 0x31D DUP2 DUP6 PUSH1 0x20 DUP7 ADD PUSH2 0x2BD JUMP JUMPDEST PUSH2 0x326 DUP2 PUSH2 0x2E7 JUMP JUMPDEST DUP5 ADD SWAP2 POP POP SWAP3 SWAP2 POP POP JUMP JUMPDEST PUSH1 0x0 PUSH1 0x20 DUP3 ADD SWAP1 POP DUP2 DUP2 SUB PUSH1 0x0 DUP4 ADD MSTORE PUSH2 0x34B DUP2 DUP5 PUSH2 0x2F8 JUMP JUMPDEST SWAP1 POP SWAP3 SWAP2 POP POP JUMP JUMPDEST PUSH32 0x596F7520617265206E6F742074686520686F6C64657221000000000000000000 PUSH1 0x0 DUP3 ADD MSTORE POP JUMP JUMPDEST PUSH1 0x0 PUSH2 0x389 PUSH1 0x17 DUP4 PUSH2 0x2AC JUMP JUMPDEST SWAP2 POP PUSH2 0x394 DUP3 PUSH2 0x353 JUMP JUMPDEST PUSH1 0x20 DUP3 ADD SWAP1 POP SWAP2 SWAP1 POP JUMP JUMPDEST PUSH1 0x0 PUSH1 0x20 DUP3 ADD SWAP1 POP DUP2 DUP2 SUB PUSH1 0x0 DUP4 ADD MSTORE PUSH2 0x3B8 DUP2 PUSH2 0x37C JUMP JUMPDEST SWAP1 POP SWAP2 SWAP1 POP JUMP INVALID LOG2 PUSH5 0x6970667358 0x22 SLT KECCAK256 GT 0xF DUP5 0xE9 PUSH1 0x8D 0xC8 0xC9 0xBD SWAP9 0xCE PUSH22 0xB0E2B8B4F5ACE2955CEC1B06F2DD8C24140D8C2E6473 PUSH16 0x6C634300081200330000000000000000 "
				},
				"gasEstimates": {
					"creation": {
						"codeDepositCost": "202600",
						"executionCost": "24511",
						"totalCost": "227111"
					},
					"external": {
						"checkHolder()": "infinite",
						"transfer(address)": "26867"
					}
				},
				"methodIdentifiers": {
					"checkHolder()": "486198e3",
					"transfer(address)": "1a695230"
				}
			},
			"storageLayout": {
				"storage": [
					{
						"astId": 3,
						"contract": "contracts/HeirloomTransfer.sol:HeirloomTransfer",
						"label": "holder",
						"offset": 0,
						"slot": "0",
						"type": "t_address"
					}
				],
				"types": {
					"t_address": {
						"encoding": "inplace",
						"label": "address",
						"numberOfBytes": "20"
					}
				}
			},
			"userdoc": {
				"kind": "user",
				"methods": {},
				"version": 1
			}
		}
	}
}