{
	"data": {
		"bytecode": {
			"linkReferences": {},
			"object": "608060405234801561001057600080fd5b506040516103ad3803806103ad83398181016040528101906100329190610082565b816000819055508060018190555050506100c2565b600080fd5b6000819050919050565b61005f8161004c565b811461006a57600080fd5b50565b60008151905061007c81610056565b92915050565b6000806040838503121561009957610098610047565b5b60006100a78582860161006d565b92505060206100b88582860161006d565b9150509250929050565b6102dc806100d16000396000f3fe608060405234801561001057600080fd5b506004361061004c5760003560e01c8063853255cc14610051578063a0d7afb71461006f578063f3593cd01461008d578063f9fa48c3146100ab575b600080fd5b6100596100c9565b6040516100669190610152565b60405180910390f35b6100776100e5565b6040516100849190610152565b60405180910390f35b610095610101565b6040516100a29190610152565b60405180910390f35b6100b361011d565b6040516100c09190610152565b60405180910390f35b6000806001546000546100dc919061019c565b90508091505090565b6000806001546000546100f891906101d0565b90508091505090565b6000806001546000546101149190610204565b90508091505090565b6000806001546000546101309190610275565b90508091505090565b6000819050919050565b61014c81610139565b82525050565b60006020820190506101676000830184610143565b92915050565b7f4e487b7100000000000000000000000000000000000000000000000000000000600052601160045260246000fd5b60006101a782610139565b91506101b283610139565b92508282019050808211156101ca576101c961016d565b5b92915050565b60006101db82610139565b91506101e683610139565b92508282039050818111156101fe576101fd61016d565b5b92915050565b600061020f82610139565b915061021a83610139565b925082820261022881610139565b9150828204841483151761023f5761023e61016d565b5b5092915050565b7f4e487b7100000000000000000000000000000000000000000000000000000000600052601260045260246000fd5b600061028082610139565b915061028b83610139565b92508261029b5761029a610246565b5b82820490509291505056fea2646970667358221220d5647e363e08120ff83de70ed622a1dbc173a6f3ae889c86762af3605008d1f764736f6c63430008120033",
			"opcodes": "PUSH1 0x80 PUSH1 0x40 MSTORE CALLVALUE DUP1 ISZERO PUSH2 0x10 JUMPI PUSH1 0x0 DUP1 REVERT JUMPDEST POP PUSH1 0x40 MLOAD PUSH2 0x3AD CODESIZE SUB DUP1 PUSH2 0x3AD DUP4 CODECOPY DUP2 DUP2 ADD PUSH1 0x40 MSTORE DUP2 ADD SWAP1 PUSH2 0x32 SWAP2 SWAP1 PUSH2 0x82 JUMP JUMPDEST DUP2 PUSH1 0x0 DUP2 SWAP1 SSTORE POP DUP1 PUSH1 0x1 DUP2 SWAP1 SSTORE POP POP POP PUSH2 0xC2 JUMP JUMPDEST PUSH1 0x0 DUP1 REVERT JUMPDEST PUSH1 0x0 DUP2 SWAP1 POP SWAP2 SWAP1 POP JUMP JUMPDEST PUSH2 0x5F DUP2 PUSH2 0x4C JUMP JUMPDEST DUP2 EQ PUSH2 0x6A JUMPI PUSH1 0x0 DUP1 REVERT JUMPDEST POP JUMP JUMPDEST PUSH1 0x0 DUP2 MLOAD SWAP1 POP PUSH2 0x7C DUP2 PUSH2 0x56 JUMP JUMPDEST SWAP3 SWAP2 POP POP JUMP JUMPDEST PUSH1 0x0 DUP1 PUSH1 0x40 DUP4 DUP6 SUB SLT ISZERO PUSH2 0x99 JUMPI PUSH2 0x98 PUSH2 0x47 JUMP JUMPDEST JUMPDEST PUSH1 0x0 PUSH2 0xA7 DUP6 DUP3 DUP7 ADD PUSH2 0x6D JUMP JUMPDEST SWAP3 POP POP PUSH1 0x20 PUSH2 0xB8 DUP6 DUP3 DUP7 ADD PUSH2 0x6D JUMP JUMPDEST SWAP2 POP POP SWAP3 POP SWAP3 SWAP1 POP JUMP JUMPDEST PUSH2 0x2DC DUP1 PUSH2 0xD1 PUSH1 0x0 CODECOPY PUSH1 0x0 RETURN INVALID PUSH1 0x80 PUSH1 0x40 MSTORE CALLVALUE DUP1 ISZERO PUSH2 0x10 JUMPI PUSH1 0x0 DUP1 REVERT JUMPDEST POP PUSH1 0x4 CALLDATASIZE LT PUSH2 0x4C JUMPI PUSH1 0x0 CALLDATALOAD PUSH1 0xE0 SHR DUP1 PUSH4 0x853255CC EQ PUSH2 0x51 JUMPI DUP1 PUSH4 0xA0D7AFB7 EQ PUSH2 0x6F JUMPI DUP1 PUSH4 0xF3593CD0 EQ PUSH2 0x8D JUMPI DUP1 PUSH4 0xF9FA48C3 EQ PUSH2 0xAB JUMPI JUMPDEST PUSH1 0x0 DUP1 REVERT JUMPDEST PUSH2 0x59 PUSH2 0xC9 JUMP JUMPDEST PUSH1 0x40 MLOAD PUSH2 0x66 SWAP2 SWAP1 PUSH2 0x152 JUMP JUMPDEST PUSH1 0x40 MLOAD DUP1 SWAP2 SUB SWAP1 RETURN JUMPDEST PUSH2 0x77 PUSH2 0xE5 JUMP JUMPDEST PUSH1 0x40 MLOAD PUSH2 0x84 SWAP2 SWAP1 PUSH2 0x152 JUMP JUMPDEST PUSH1 0x40 MLOAD DUP1 SWAP2 SUB SWAP1 RETURN JUMPDEST PUSH2 0x95 PUSH2 0x101 JUMP JUMPDEST PUSH1 0x40 MLOAD PUSH2 0xA2 SWAP2 SWAP1 PUSH2 0x152 JUMP JUMPDEST PUSH1 0x40 MLOAD DUP1 SWAP2 SUB SWAP1 RETURN JUMPDEST PUSH2 0xB3 PUSH2 0x11D JUMP JUMPDEST PUSH1 0x40 MLOAD PUSH2 0xC0 SWAP2 SWAP1 PUSH2 0x152 JUMP JUMPDEST PUSH1 0x40 MLOAD DUP1 SWAP2 SUB SWAP1 RETURN JUMPDEST PUSH1 0x0 DUP1 PUSH1 0x1 SLOAD PUSH1 0x0 SLOAD PUSH2 0xDC SWAP2 SWAP1 PUSH2 0x19C JUMP JUMPDEST SWAP1 POP DUP1 SWAP2 POP POP SWAP1 JUMP JUMPDEST PUSH1 0x0 DUP1 PUSH1 0x1 SLOAD PUSH1 0x0 SLOAD PUSH2 0xF8 SWAP2 SWAP1 PUSH2 0x1D0 JUMP JUMPDEST SWAP1 POP DUP1 SWAP2 POP POP SWAP1 JUMP JUMPDEST PUSH1 0x0 DUP1 PUSH1 0x1 SLOAD PUSH1 0x0 SLOAD PUSH2 0x114 SWAP2 SWAP1 PUSH2 0x204 JUMP JUMPDEST SWAP1 POP DUP1 SWAP2 POP POP SWAP1 JUMP JUMPDEST PUSH1 0x0 DUP1 PUSH1 0x1 SLOAD PUSH1 0x0 SLOAD PUSH2 0x130 SWAP2 SWAP1 PUSH2 0x275 JUMP JUMPDEST SWAP1 POP DUP1 SWAP2 POP POP SWAP1 JUMP JUMPDEST PUSH1 0x0 DUP2 SWAP1 POP SWAP2 SWAP1 POP JUMP JUMPDEST PUSH2 0x14C DUP2 PUSH2 0x139 JUMP JUMPDEST DUP3 MSTORE POP POP JUMP JUMPDEST PUSH1 0x0 PUSH1 0x20 DUP3 ADD SWAP1 POP PUSH2 0x167 PUSH1 0x0 DUP4 ADD DUP5 PUSH2 0x143 JUMP JUMPDEST SWAP3 SWAP2 POP POP JUMP JUMPDEST PUSH32 0x4E487B7100000000000000000000000000000000000000000000000000000000 PUSH1 0x0 MSTORE PUSH1 0x11 PUSH1 0x4 MSTORE PUSH1 0x24 PUSH1 0x0 REVERT JUMPDEST PUSH1 0x0 PUSH2 0x1A7 DUP3 PUSH2 0x139 JUMP JUMPDEST SWAP2 POP PUSH2 0x1B2 DUP4 PUSH2 0x139 JUMP JUMPDEST SWAP3 POP DUP3 DUP3 ADD SWAP1 POP DUP1 DUP3 GT ISZERO PUSH2 0x1CA JUMPI PUSH2 0x1C9 PUSH2 0x16D JUMP JUMPDEST JUMPDEST SWAP3 SWAP2 POP POP JUMP JUMPDEST PUSH1 0x0 PUSH2 0x1DB DUP3 PUSH2 0x139 JUMP JUMPDEST SWAP2 POP PUSH2 0x1E6 DUP4 PUSH2 0x139 JUMP JUMPDEST SWAP3 POP DUP3 DUP3 SUB SWAP1 POP DUP2 DUP2 GT ISZERO PUSH2 0x1FE JUMPI PUSH2 0x1FD PUSH2 0x16D JUMP JUMPDEST JUMPDEST SWAP3 SWAP2 POP POP JUMP JUMPDEST PUSH1 0x0 PUSH2 0x20F DUP3 PUSH2 0x139 JUMP JUMPDEST SWAP2 POP PUSH2 0x21A DUP4 PUSH2 0x139 JUMP JUMPDEST SWAP3 POP DUP3 DUP3 MUL PUSH2 0x228 DUP2 PUSH2 0x139 JUMP JUMPDEST SWAP2 POP DUP3 DUP3 DIV DUP5 EQ DUP4 ISZERO OR PUSH2 0x23F JUMPI PUSH2 0x23E PUSH2 0x16D JUMP JUMPDEST JUMPDEST POP SWAP3 SWAP2 POP POP JUMP JUMPDEST PUSH32 0x4E487B7100000000000000000000000000000000000000000000000000000000 PUSH1 0x0 MSTORE PUSH1 0x12 PUSH1 0x4 MSTORE PUSH1 0x24 PUSH1 0x0 REVERT JUMPDEST PUSH1 0x0 PUSH2 0x280 DUP3 PUSH2 0x139 JUMP JUMPDEST SWAP2 POP PUSH2 0x28B DUP4 PUSH2 0x139 JUMP JUMPDEST SWAP3 POP DUP3 PUSH2 0x29B JUMPI PUSH2 0x29A PUSH2 0x246 JUMP JUMPDEST JUMPDEST DUP3 DUP3 DIV SWAP1 POP SWAP3 SWAP2 POP POP JUMP INVALID LOG2 PUSH5 0x6970667358 0x22 SLT KECCAK256 0xD5 PUSH5 0x7E363E0812 0xF 0xF8 RETURNDATASIZE 0xE7 0xE 0xD6 0x22 LOG1 0xDB 0xC1 PUSH20 0xA6F3AE889C86762AF3605008D1F764736F6C6343 STOP ADDMOD SLT STOP CALLER "
		},
		"gasEstimates": {
			"creation": {
				"codeDepositCost": "146400",
				"executionCost": "infinite",
				"totalCost": "infinite"
			},
			"external": {
				"diff()": "infinite",
				"div()": "infinite",
				"multiply()": "infinite",
				"sum()": "infinite"
			}
		},
		"methodIdentifiers": {
			"diff()": "a0d7afb7",
			"div()": "f9fa48c3",
			"multiply()": "f3593cd0",
			"sum()": "853255cc"
		}
	},
	"abi": [
		{
			"inputs": [
				{
					"internalType": "uint256",
					"name": "_a",
					"type": "uint256"
				},
				{
					"internalType": "uint256",
					"name": "_b",
					"type": "uint256"
				}
			],
			"stateMutability": "nonpayable",
			"type": "constructor"
		},
		{
			"inputs": [],
			"name": "diff",
			"outputs": [
				{
					"internalType": "uint256",
					"name": "",
					"type": "uint256"
				}
			],
			"stateMutability": "view",
			"type": "function"
		},
		{
			"inputs": [],
			"name": "div",
			"outputs": [
				{
					"internalType": "uint256",
					"name": "",
					"type": "uint256"
				}
			],
			"stateMutability": "view",
			"type": "function"
		},
		{
			"inputs": [],
			"name": "multiply",
			"outputs": [
				{
					"internalType": "uint256",
					"name": "",
					"type": "uint256"
				}
			],
			"stateMutability": "view",
			"type": "function"
		},
		{
			"inputs": [],
			"name": "sum",
			"outputs": [
				{
					"internalType": "uint256",
					"name": "",
					"type": "uint256"
				}
			],
			"stateMutability": "view",
			"type": "function"
		}
	]
}